:020000040800F2
:10000000509F0020DD0100088D2800088F2800087F
:100010009128000893280008952800080000000097
:100020000000000000000000000000004501000882
:10003000972800080000000089010008992800089E
:10004000F7010008F7010008F7010008F7010008B0
:10005000F7010008F7010008F7010008F7010008A0
:10006000F7010008F7010008F7010008F701000890
:10007000F7010008F7010008F7010008F701000880
:10008000F7010008F7010008F7010008F701000870
:10009000F7470008F7010008F7010008F70100081A
:1000A000F7010008F7010008F7010008F701000850
:1000B000F7010008F7010008F7010008F701000840
:1000C000F7010008F7010008F7010008F701000830
:1000D000F7010008F7010008252B0008D52A0008C1
:1000E000F7010008F7010008F7010008F701000810
:1000F000F7010008F7010008F7010008F701000800
:10010000F7010008F7010008F7010008F7010008EF
:10011000F7010008752B0008F7010008F701000837
:10012000F7010008F7010008F7010008F7010008CF
:10013000DFF80CD007F076FB00480047E9260008FE
:10014000509F0020224B19680868B0E8F00F80F338
:100150000988BFF36F8F4FF0000080F311884EF0D5
:100160000D0E70470000000006480068006880F32C
:10017000088862B661B6BFF34F8FBFF36F8F00DFA1
:1001800000BF00BF08ED00E0EFF30980BFF36F8F01
:100190000F4B1A6820E9F00F106008B54FF05000BF
:1001A00080F31188BFF34F8FBFF36F8F05F0E1FF2E
:1001B0004FF0000080F31188BDE808401968086816
:1001C000B0E8F00F80F30988BFF36F8F704700BF6E
:1001D00038030020EFF30580704700000648804791
:1001E00006480047FEE7FEE7FEE7FEE7FEE7FEE71C
:1001F000FEE7FEE7FEE7FEE7A10200083101000886
:100200000CB500224C4800920192016841F4803103
:1002100001604FF4A063016801F40031019100997D
:10022000491C0091019911B900999942F3D10168D3
:10023000890333D50121019140490A6842F0100237
:100240000A600A6822F003020A600A6842F00202A9
:100250000A604168416041684160416841F48061E1
:100260004160416821F47C114160416841F4E8112A
:100270004160016841F08071016001688901FCD52D
:10028000416821F003014160416841F00201416091
:100290004168C1F381010229FAD10CBD01920CBD64
:1002A000254810B5016841F0010101604168244A08
:1002B000114041600168234A11400160016821F446
:1002C00080210160416821F4FE0141604FF41F016B
:1002D0008160FFF795FF1C494FF00060086010BD7A
:1002E000154A10B55068194B10F00C01184803D08E
:1002F000042901D0082901D0036012E05168536835
:1003000001F470114FF0020413F4803F04EB9141AB
:1003100002D053689B0301D50E4B00E00B4B5943B1
:10032000016051680A4AC1F30311121D515C026851
:10033000CA40026010BD00000010024000200240D0
:100340000000FFF8FFFFF6FE08ED00E000127A0063
:100350000000002000093D002849084328490860A2
:10036000704730B50F23C27801780125F2B1244AD5
:10037000126801F1E02102F4E062C2F5E062120AC3
:10038000C2F10404D3404278A24084781C40144354
:10039000220181F80024007800F01F018D404009FF
:1003A000800000F1E020C0F8005130BD01F01F00D6
:1003B00085404809800000F1E020C0F8805130BD40
:1003C000104A114001430E48001F016070470C4A5B
:1003D000121D0029116801D0014300E08143116022
:1003E00070474FF0E0210428086903D020F0040092
:1003F0000861704740F00400FAE700000000FA05C9
:100400000CED00E080FFFF1FFE4910B588424FF061
:10041000010101D14C0601E04FF08064204600F05C
:10042000D1FD2046BDE81040002100F0CBBD10B545
:100430000368002223F002030360036843F0010312
:1004400003604FF6FF7300E0521C4468E40701D1DB
:100450009A42F9D14268D2073ED08A79012A0268CD
:100460003CD022F080020260CA79012A026838D0AA
:1004700022F0400202600A7A012A026834D022F097
:10048000200202604A7A012A026830D022F010026B
:1004900002608A7A012A02682CD022F008020260E7
:1004A000CA7A012A026828D022F0040202608A78FF
:1004B000CC78920742EA04620C7942EA04424C7911
:1004C000098842EA0452491E0A43C261016821F0C8
:1004D00001010160002114E0002010BD42F0800203
:1004E000C1E742F04002C5E742F02002C9E742F00E
:1004F0001002CDE742F00802D1E742F00402D5E74E
:10050000491C4268D20701D09942F9D14068C0071E
:10051000E2D1012010BDF0B5827ABB4D012191409E
:100520002A6842F001022A60B74E1C3632688A43BC
:100530003260B54A047BB54B0C32A4B914688C43C5
:1005400014604488C78844EA0744877A03EBC707E6
:10055000C7F840460488878844EA0744877A03EB53
:10056000C707C7F84446047B012C12D114680C431A
:100570001460847A026803EBC4044FEA3242C4F880
:100580004026847A426803EBC4034FEA3242C3F840
:1005900044269D4AC37A121D002B136806D00B43D4
:1005A0001360994A0389143213B104E08B43F7E7CF
:1005B00013688B4313600389012B02D113680B432B
:1005C0001360407B012802D13068084330602868FE
:1005D00020F001002860F0BD00218171C17101721D
:1005E00041728172C1728170C17003210171022157
:1005F000417101210180704783490A6842F001027C
:100600000A600A6843F60E739A430A600A6842EA6F
:1006100000200860086820F0010008607047002989
:10062000016802D041F4803101E021F480310160A1
:1006300070470029016813D041F080010160D0F8B3
:10064000841141F48071C0F88411D0F8941141F400
:100650008071C0F89411D0F8A41141F4807112E0B7
:1006600021F080010160D0F8841121F48071C0F87C
:100670008411D0F8941121F48071C0F89411D0F84D
:10068000A41121F48071C0F8A411704730B502465E
:10069000002093685B0108D49068000101D5012017
:1006A00003E09068C00037D5022002EB0012D2F8B8
:1006B000803103F00103C2F880310B7A73B3D2F8B2
:1006C00080414D681C434B7A43EAC5031C43C2F882
:1006D00080418B7A03F00F038B72D2F8843123F0C0
:1006E0000F03C2F88431D2F884318C7A2343C2F8E4
:1006F0008431CB7ACC6843EA0423C2F88831CB7BBF
:10070000096943EA0121C2F88C11D2F8801141F045
:100710000101C2F8801130BD042030BDD2F8803113
:100720004C7A23430C8843EA4453C2F88031D0E723
:10073000002221B1012905D0022906D112E08268E8
:10074000334801E08268334802403349501A8A42F4
:1007500014D00ADCA2B16FF0806010180FD002280C
:100760000CD10FE082682D48EEE7B0F5007F09D08C
:100770002B49401803D0B0F5003F03D0002070474C
:10078000022070470120704741B101290AD0022997
:1007900003D1816841F4000181607047816841F0B4
:1007A0008001F9E7816841F40041F5E710B500EBFD
:1007B0000113D3F8B04114F004041472D3F8B0411B
:1007C00045D0E4085460D3F8B04104F002045472F8
:1007D000D3F8B44104F00F049472D3F8B441240A5E
:1007E000D474D3F8B841D472D3F8B841240A14733E
:1007F000D3F8B841240C5473D3F8B841240E947341
:1008000010E000000064004000660040006000400E
:1008100003000004000300080001000800000310AA
:100820000001FFF7D3F8BC41D473D3F8BC41240ACC
:100830001474D3F8BC41240C5474D3F8BC311B0E8F
:10084000937439B1016941F02001016110BD640D5B
:100850001460B8E7C16841F02001C16010BD21B14A
:10086000016941F0200101617047C16841F0200138
:10087000C16070470246002029B1012902D11069E8
:1008800000F003007047D068FAE700234FF6FF72CC
:1008900021B1012917D0022924D03AE0016821F0C2
:1008A000020141F00101016000E0521E416801F0C7
:1008B0000301012901D0002AF7D1406800F00300AC
:1008C000012823D124E0016821F00301016000E048
:1008D000521E4168890701D0002AF9D1406880077B
:1008E00014D115E0016821F0010141F0020101601D
:1008F00000E0521E416801F00301022901D0002AE4
:10090000F7D1406800F00300022801D0002300E086
:100910000123184670470268002122F0010242F0CC
:1009200002020260406800F00300022800D10121A9
:100930000846704702684FF6FF71002322F002025A
:10094000026000E0491E4268920701D50029F9D1F2
:100950004068800700D40123184670478069C0F3BF
:100960000210000170478069000E70478069C0F373
:1009700007407047002A426901D00A4300E08A43D9
:10098000426170470246002011F4700F03D0926953
:1009900004E001207047CB0104D552680A401103DE
:1009A000F7D170470B0101D59268F7E78B0101D5AC
:1009B000D268F3E71269F1E7534A914202D100216C
:1009C00081617047C1F313028B0101D5C26070478A
:1009D0004B0101D502617047090101D58260704762
:1009E000426070470246002053690B424AD0B1F57D
:1009F000807F3BD013DC08292ED007DC012926D0CC
:100A0000022927D004293DD1D0682BE0102925D018
:100A1000202926D0402935D11069102130E0B1F5C8
:100A2000004F2BD00BDCB1F5007F22D0B1F5806FE9
:100A300022D0B1F5006F25D19069702120E0B1F589
:100A4000803F11D0B1F5003F1CD15068E5E79068B8
:100A50002E4915E0D06802E0D068DEE71069032176
:100A60000EE0106908210BE05068FBE79069012156
:100A700006E09069022103E0906900E050680421DB
:100A800000F03BB8704730B5082310240422B1F5BC
:100A9000007F1DD010DC202929D007DC012921D0BE
:100AA000042922D0082900D1C46030BD402920D0BB
:100AB000B1F5807FF9D10BE00025B1F5004F06D0EC
:100AC00008DCB1F5806F03D0B1F5006FEDD1856121
:100AD000426030BDB1F5803F0DD0B1F5003FF8D197
:100AE000446030BD0949816030BDC36030BD0361E1
:100AF00030BD046130BD436030BD024600200A4273
:100B000000D00120704700007000F03001010100AA
:100B10008F4910B5884206D10121042000F049FA1E
:100B2000002104203BE08B49884206D101210820A6
:100B300000F03FFA0021082031E08749884206D1C1
:100B40000121102000F035FA0021102027E0834910
:100B5000884206D10121202000F02BFA002120201C
:100B60001DE07F49884206D10121402000F021FA92
:100B70000021402013E07B49884206D101218020DA
:100B800000F017FA0021802009E0774988420AD155
:100B900084150121204600F00CFA00212046BDE812
:100BA000104000F006BA10BD10B50121084600F053
:100BB00000FA0021BDE81040012000F0FAB9F0B5BC
:100BC000CC78002204F00F03E40601D58C7823438F
:100BD0000C784FF00F0C14F0FF0F4FF0010E1BD0EC
:100BE00005680E880EFA02F42640A64210D196003F
:100BF0000CFA06F725EA070703FA06F5CE783D4317
:100C0000282E02D0482E02D002E0446100E00461A8
:100C1000521C082AE5D305600A88FF2A1CD94468BB
:100C2000002202F108060EFA06F50E882E40AE42AA
:100C30000ED196000CFA06F7BC4303FA06F7CE78FD
:100C40003C43282E00D14561CE78482E00D1056165
:100C5000521C082AE5D34460F0BD4FF6FF710180B5
:100C6000022181700421C170704702460020926801
:100C70000A4200D001207047806880B27047024667
:100C80000020D2680A4200D001207047C06880B2BC
:100C9000704701617047416170470AB10161704757
:100CA00041617047C160704741F480328261816167
:100CB00082618169806970472C4B10B51A684FF6C4
:100CC0008074224042EA00100843186010BD284991
:100CD000C8617047F0B5254C002801DAE36900E0EF
:100CE0006368450D2E0185B2C0F30157B540C0F3CE
:100CF0000342032F05D0C6020AD503269640B3430C
:100D000007E023F07062636823F07063636002E0C1
:100D1000AB4343F0706201B12A43002801DAE2617B
:100D2000F0BD6260F0BD10B58A0721F003040F49E1
:100D3000120F21440F238C6893409C438C608B6876
:100D4000904003438B6010BD0949C1F8DC00704737
:100D500000080140000C0140001001400014014057
:100D600000180140001C014000200140000001402B
:100D700000002042A548016841F00101016041687E
:100D8000A34A114041600168A24A11400160016814
:100D900021F480210160416821F4FE0141604FF49B
:100DA0001F018160704799490A6822F480320A6005
:100DB0000A6822F480220A60B0F5803F07D0B0F5BF
:100DC000802F03D1086840F4A020086070470868AD
:100DD00040F48030F9E70346002059098B4A012985
:100DE0000AD002290AD0516A03F01F02012393405E
:100DF0000B4200D0012070471168F5E7116AF3E754
:100E000018B500204FF4A06400903120FFF7E3FFF5
:100E10000099491C0091A14201D00028F5D0312051
:100E2000FFF7D9FF002800D0012018BD774A1168CC
:100E300021F0F80141EAC00010607047764908606F
:100E40007047724B5A68084322F47C121043586072
:100E500070477149086670476C4A516821F0030178
:100E60000143516070476948406800F00C007047CA
:100E7000664A516821F0F001014351607047634AAE
:100E8000516821F4E0610143516070475F4A516845
:100E900021F4605141EAC000506070475B4A00296C
:100EA000517A01D0014300E08143517270475A49A1
:100EB000C1F8D8007047554A516821F440410143B8
:100EC000516070475149002281F8202081F820208C
:100ED000012802D0042802D1052081F820007047A3
:100EE0004E490860704749490A6A02430A627047DE
:100EF0004A4944390860704730B5444A5168484B04
:100F000011F00C0103D0042901D0082901D003609D
:100F100012E05168536801F470114FF0020413F4A9
:100F2000803F04EB914102D053689B0301D53D4BB8
:100F300000E03B4B5943016051680F2303EA111154
:100F4000394B5C5C0168E14041605468072505EA63
:100F500014241C5D21FA04F48460546805EAD42446
:100F60001B5DD940C1605268032303EA92322E4BC5
:100F70001B1F9A5CB1FBF2F1016130BD234A0029CD
:100F8000516901D0014300E08143516170471F4A1C
:100F90000029916901D0014300E0814391617047CC
:100FA0001A4A0029D16901D0014300E08143D1618F
:100FB0007047164A0029D16801D0014300E08143FF
:100FC000D1607047114A0029116901D0014300E046
:100FD00081431161704711494039086070470E49DB
:100FE000C86470470949C87170470848416A41F0B0
:100FF000807141627047054A0146002092680A42AA
:1010000000D00120704701498872704700100240EB
:101010000000FFF8FFFFF6FE00004242800442425B
:1010200000127A0000093D0018000020F94910B5AF
:10103000884202D10121C41486E0B0F1804F09D06A
:10104000F54988420DD101210220FFF7BBFF0021A5
:10105000022064E001210846FFF7B4FF00210120CF
:101060005DE0EE49884206D101210420FFF7AAFF86
:101070000021042053E0EA49884206D101210820DA
:10108000FFF7A0FF0021082049E0E649884206D189
:1010900001211020FFF796FF002110203FE0E249D8
:1010A000884206D101212020FFF78CFF002120205B
:1010B00035E0DE49884202D10121441444E0DC4994
:1010C000884202D10121CC043EE0DA49884202D1B3
:1010D00001210C0538E0D849884202D101214C0594
:1010E00032E0D649884206D101214020FFF76AFF4D
:1010F0000021402013E0D249884206D101218020FE
:10110000FFF760FF0021802009E0CE4988420AD124
:10111000841501212046FFF755FF00212046BDE838
:101120001040FFF74FBFC849884202D101210C048B
:101130000AE0C649884202D101214C0404E0C449B6
:1011400088420AD101218C042046FFF732FF204655
:10115000BDE810400021FFF72CBF10BD30B502885C
:10116000AC4CB24DA0420DD0A8420BD0B0F1804F94
:1011700008D0A94B984205D0A84B984202D0A84B62
:10118000984203D122F070034A881A43A54B984233
:1011900006D0A54B984203D022F44073CA881A4364
:1011A00002808A8882850A880285A0420AD0A842E5
:1011B00008D0A54A904205D0A44A904202D0A44A41
:1011C000904201D1097A01860121818230BD30B57A
:1011D000028C22F001020284028C8388048B22F0AC
:1011E000020224F073050C882C430D8915434A88AC
:1011F0002A43884DA8420BD08C4DA84208D0924D6E
:10120000A84205D0914DA84202D0914DA8420DD1DF
:1012100022F008054A8923F440732A4322F004058A
:101220008A882A438D891D43CB892B43838004837D
:10123000C9888186028430BD70B5028C22F010020C
:101240000284028C8388048B0D8824F4E6464FF6D2
:10125000FF7404EA052535430E8922F0200204EAD2
:10126000061616434A8804EA02123243694EB04217
:1012700002D06E4EB04215D122F080064A8923F486
:10128000406304EA0212324322F040068A8804EAEC
:10129000021232438E8904EA86061E43CB8904EA91
:1012A0008303334383800583C9880187028470BD2B
:1012B00070B5028C22F480720284028C8388848B45
:1012C0000D8824F0730425430E894FF6FF7422F431
:1012D000007204EA062616434A8804EA02223243D0
:1012E0004C4EB04202D0514EB04215D122F40066AD
:1012F0004A8923F4405304EA0222324322F48066EE
:101300008A8804EA022232438E8904EA06161E43C2
:10131000CB8904EA0313334383808583C98881879B
:10132000028470BD70B5028C22F480520284058C58
:101330008288838B0C8823F4E6464FF6FF7303EA1A
:101340000424344325F400560D8903EA053535435A
:101350004E8803EA06362E432E4DA84202D0334D66
:10136000A84205D122F480458A8903EA82122A43E1
:1013700082808483C988A0F84010068470BD828B67
:1013800022F440628283828B4FF6FF7303EA0121CD
:101390000A4382837047828B22F00C028283828B05
:1013A0000A4382837047028B22F440620283028BDD
:1013B0004FF6FF7303EA01210A4302837047F0B539
:1013C000048C24F010040484078B048C4FF6FF7502
:1013D00027F4734705EA03333B4305EA02221A4325
:1013E0000C4B05EA011698420ED0104B98420BD0D8
:1013F000B0F1804F08D0084B984205D0074B984277
:1014000002D0074B984225D124F02001314341F00E
:10141000100124E0002C01400004004000080040BE
:10142000000C004000100040001400400034014057
:10143000004C0140005001400054014000180040A1
:10144000001C0040002000400040014000440140DA
:101450000048014024F0A0030B4343F01001028335
:101460000184F0BD028B22F00C020283028B0A433E
:101470000283704770B5048C24F001040484058B4A
:10148000048C4FF6FF7606EA0313134325F0F305A9
:10149000F84A2B4390420ED0F74A90420BD0B0F15D
:1014A000804F08D0F54A904205D0F54A904202D0CC
:1014B000F44A904202D124F0020201E024F00A0230
:1014C0000A4342F001010383018470BD2DE9F84F06
:1014D0000D4604460888E74FDFF89CC3DFF89C837D
:1014E000DFF89C934988AA882B894FF0804A48B33B
:1014F00004282FD04FF6FF760828934632D0208C50
:101500009E4620F480502084A38B208C06EA013272
:10151000009223F4734306EA0B221A4306EA0E33C1
:101520001343BC420AD0644508D0544506D0444514
:1015300004D04C4502D0D34A944242D120F400500A
:10154000009940E02046FFF795FFE9882046BDE876
:10155000F84F87E72046FFF732FFE9882046BDE8CD
:10156000F84F20E7208C20F480702084B4F81CE031
:10157000208C06EA031306EA01222EF0F30E43EA5A
:101580000B0343EA0E030092BC420AD0644508D024
:10159000544506D0444504D04C4502D0B94A944243
:1015A00003D120F40070009901E020F4206008438A
:1015B00040F48070A3832084E9882046BDE8F84F7A
:1015C000E9E620F40240084340F48050A3832084DD
:1015D000E9882046BDE8F84FD1E62DE9F0410C46F8
:1015E000002649880746012501B90226A288012A5A
:1015F00000D10225208823890028384610D0FFF723
:10160000DEFEE1883846FFF7CEFE23892A463146C2
:101610003846FFF72FFFE1883846BDE8F04121E763
:10162000FFF728FFE1883846FFF71CFF23892A4689
:1016300031463846FFF7C3FEE1883846BDE8F04141
:10164000B1E610B50A884B88CC881A438B882343AF
:101650001A430B891A434B8989891A430A43A0F814
:10166000442010BD4FF6FF71818000210180C180B0
:101670004180017270470021018041808180C180DA
:10168000018141818181C1817047002101804180B8
:1016900001228280C1800181704700210180418048
:1016A0008180C18001814181818170470029018849
:1016B00002D041F0010101E021F0010101807047F9
:1016C000002930F8441F02D041F4004101E0C1F389
:1016D0000E0101807047002A828901D00A4300E090
:1016E0008A4382817047818270471143A0F8481075
:1016F0007047002A828901D00A4300E08A43828130
:101700007047018921F0070101817047028922F0A9
:1017100070020A430281704700B50346FFF7F6FFE7
:10172000188940F00700188100BD70B516460D46B7
:10173000602904464FF0010231460AD0FFF79AFEB5
:1017400029462046FFF7E2FF208940F0070020816C
:1017500070BDFFF734FEF3E730B504894FF6FF752F
:1017600005EA03231343E4B20B432343038130BD53
:1017700010B50446FFF7F0FF208940F07700208184
:1017800010BD10B50446FFF7E7FF208940F4804004
:10179000208110BD018582827047028822F070028C
:1017A0000A430280704770B50589048B068C25F0CA
:1017B00007050D434FF6FC410C4040F201110C436C
:1017C0004FF6FF7101EA031126F02206114331435F
:1017D00005810483018470BD028B22F070020A43EC
:1017E00002837047028B4FF6FF7322F4E04203EA54
:1017F0000121114301837047828B22F070020A435A
:1018000082837047828B4FF6FF7322F4E04203EA33
:1018100001211143818370470029018802D041F0E2
:10182000800101E021F0800101807047002981885A
:1018300002D041F0040101E021F0040181807047F1
:101840000029818802D041F0080101E021F008015F
:10185000818070470029818802D041F0010101E0B8
:1018600021F0010181807047028B22F008020A43B7
:1018700002837047002C0140003401400004004006
:1018800000080040000C0040028B4FF6FF7322F46A
:10189000006203EA012111430183EAE7828B22F00F
:1018A00008020A438283E4E7828B4FF6FF7322F437
:1018B000006203EA012111438183DAE7028B22F0FF
:1018C00004020A430283D4E7028B4FF6FF7322F42B
:1018D000806203EA012111430183CAE7828B22F06F
:1018E00004020A438283C4E7828B4FF6FF7322F41B
:1018F000806203EA012111438183BAE7028B22F05F
:1019000080020A430283B4E7028B4FF6FF73C2F3EF
:101910000E0203EA012111430183AAE7828B22F020
:1019200080020A438283A4E7828B4FF6FF73C2F3DF
:101930000E0203EA0121114381839AE7028C22F00F
:1019400002020A43028494E7028C22F008020A434E
:1019500002848EE7028C4FF6FF7322F0200203EA26
:1019600001111143018484E7028C4FF6FF7322F0CA
:10197000800203EA0111114301847AE7028C4FF6D9
:10198000FF7322F4007203EA01211143018470E71E
:10199000028C4FF6FF7322F4006203EA0121114327
:1019A000018466E7028C4FF6FF7322F4005203EACB
:1019B0000131114301845CE710B50123048C8B4095
:1019C0009C430484038C8A401343038410BD10B5E8
:1019D0000423048C8B409C430484038C8A4013436F
:1019E000038410BD30B50124058C00F118038C4030
:1019F000A543058489B108290FD0091FC1F34E0002
:101A00001844016821F4E041016001684FF6FF735A
:101A100003EA02221143016030BD03EB510001686B
:101A200021F0700101600168F4E70029018802D00B
:101A300041F0020101E021F00201018019E70029D3
:101A4000018802D041F0040101E021F0040101808D
:101A50000FE70029818802D041F0800101E021F0E8
:101A60008001818005E7028822F008020280028856
:101A70000A430280FDE6828822F07002828082881A
:101A80000A438280F5E6028922F007020281028978
:101A90000A430281EDE6028922F080020281028976
:101AA0000A430281E5E68184E3E68185E1E68186F9
:101AB000DFE60187DDE68187DBE6A0F84010D8E6A7
:101AC000028822F44072028002880A430280D0E633
:101AD000808ECEE6008FCCE6808FCAE6B0F840005C
:101AE000C7E6808CC5E6008DC3E602460020128A58
:101AF0000A4200D00120BCE6C9430182B9E6024691
:101B00000020138A92890B4202EA010202D0002AC5
:101B100000D00120ADE6C9430182AAE6C44910B550
:101B200088420AD101218C032046FFF742FA204661
:101B3000BDE810400021FFF73CBABE49884202D1FF
:101B400001214C0410E0BC49884202D101218C04DF
:101B50000AE0BA49884202D10121CC0404E0B84924
:101B600088420AD101210C052046FFF72BFA2046B6
:101B7000BDE810400021FFF725BA10BD30B504467E
:101B8000008A85B00D464CF6FF710840E988014394
:101B90002182A0894EF6F3110840A9882A891143B1
:101BA0006A8902431143A181A08A4FF6FF41084090
:101BB000A9890143A1826846FFF79EF99C488442A7
:101BC00001D1039800E00298A189090400EBC0014B
:101BD00001EB0010296801D5490000E08900B0FB45
:101BE000F1F06422B0FBF2F109010B096FF0180566
:101BF0006B4300EB8300A3891D044FF0320306D52D
:101C000003EBC000B0FBF2F000F0070005E003EBCF
:101C10000010B0FBF2F000F00F000843208105B087
:101C200030BD4FF41651016000218180C1800181D7
:101C30000C2242818181704710B5028A4FF2FF0366
:101C40001A400B884C8823438C88C9880C43234353
:101C50001343038210BD0021018041808180C18037
:101C600070470029818902D041F4005101E021F43C
:101C700000518181704710B5C1F3421301F01F0478
:101C80000121A140012B07D0022B07D01430002ADC
:101C9000026805D00A4304E00C30F8E71030F6E79C
:101CA0008A43026010BD002A828A01D00A4300E004
:101CB0008A4382827047028A22F00F020282028ADD
:101CC0000A4302827047828922F4006282818289FB
:101CD0000A43828170470029818902D041F00201C4
:101CE00001E021F0020181817047028A22F0200286
:101CF0000282028A0A43028270470029018A02D0C6
:101D000041F4804101E021F4804101827047C1F338
:101D10000801818070478088C0F30800704781897E
:101D200041F0010181817047028BD2B20283028BA4
:101D300042EA012101837047028B02F47F42028351
:101D4000028B0A43028370470029818A02D041F046
:101D5000200101E021F02001818270470029818A61
:101D600002D041F0100101E021F0100181827047A2
:101D70000029818A02D041F0080101E021F0080128
:101D8000818270470029818902D041F4004101E03D
:101D9000C1F30E01818170470029818A02D041F48C
:101DA000006101E021F4006181827047828A22F0A3
:101DB00004028282828A0A43828270470029818AD1
:101DC00002D041F0020101E021F00201818270475E
:101DD0000246002012880A4200D001207047C94301
:101DE0000180704770B501F01F0501260024C1F382
:101DF000421306FA05F2012B0FD0022B0FD0838A73
:101E00004FEA11210088134206FA01F600EA0600A3
:101E100001D000B10124204670BD8389F0E7038A18
:101E2000EEE70A0A01219140C94301807047000092
:101E3000003801400044004000480040004C004091
:101E40000050004094B01421684605F024F9142194
:101E500005A805F020F94FF4FA77384602F0CAFCDD
:101E6000642004F0BAF8FDA140F2DF78D1E9003136
:101E7000CDE90A3108230AAA0021404602F0E2FC1B
:101E8000F84E00233A466946F06903F06AFB6D4656
:101E900005AC002840D01421204605F0FCF80020B5
:101EA0002918097C2154401C0328F9DBEEA00823E3
:101EB000D0E90010CDE90C100CAA0021404602F038
:101EC000C1FC0023C8226946F06903F04AFB0020E8
:101ED00029182218097B401CD1700728F8DB002341
:101EE000C8226946F06903F03CFB0020291822183B
:101EF000097B401C91720728F8DB05A9DCA005F0DE
:101F000049FFDEA005F046FF04204FF47A747060AC
:101F1000204604F062F8FBE7DEA005F03BFF384600
:101F200002F068FC642004F058F8CCA0DFF8849339
:101F3000D0E90010CDE90C1008230CAA0421484672
:101F400002F080FC00233A466946F06903F009FB81
:101F500000283AD0142105A805F09DF80020291882
:101F6000097C2154401C0328F9DBBFA00823D0E9D9
:101F70000010CDE90E100EAA0421404602F062FCCA
:101F80000023C8226946F06903F0EBFA0020291803
:101F90002218097B401CD1700728F8DB0023C822D7
:101FA0006946F06903F0DDFA002029182218097B40
:101FB000401C91720728F8DB05A9ADA005F0EAFEE8
:101FC000BDA005F0E7FE08209FE7C1A005F0E2FEF6
:101FD000FA2002F00FFC642003F0FFFF9FA008230B
:101FE000D0E90010CDE90E100EAA0021404602F003
:101FF00029FC00233A466946F06903F0B2FA00284A
:102000003AD0142105A805F046F800202918097CCB
:102010002154401C0328F9DB93A00823D0E90010C9
:10202000CDE9101010AA0021404602F00BFC00235D
:10203000C8226946F06903F094FA00202918221892
:10204000097B401CD1700728F8DB0023C8226946B1
:10205000F06903F086FA002029182218097B401C39
:1020600091720728F8DB05A981A005F093FEA0A0D6
:1020700005F090FE012048E7A6A005F08BFEFA20AF
:1020800002F0B8FB642003F0A8FF74A00823D0E995
:102090000010CDE9101010AA0421484602F0D2FB2E
:1020A00000233A466946F06903F05BFAF0B3142165
:1020B00005A804F0F0FF00202918097C2154401CD9
:1020C0000328F9DB68A00823D0E90010CDE912103D
:1020D00012AA0021404602F0B5FB0023C82269463F
:1020E000F06903F03EFA002029182218097B401CF1
:1020F000D1700728F8DB0023C8226946F06903F095
:1021000030FA002029182218097B401C91720728F8
:10211000F8DB0020401C1228FCDB05A954A005F0C8
:1021200039FE84A005F036FE0220EEE6FFE787A028
:1021300005F030FE40F6B8348CA005F02BFE2046AA
:1021400003F04BFFF8E708B500208DF80000454C80
:102150004FF496750AE0002305226946206A03F0D1
:1021600000FA18B19DF8000000F033FF206A03F078
:1021700029FC0028EFD1284603F02FFFF6E790B0A6
:10218000384C02E0C82003F028FF20780028F9D05E
:1021900004F050F94FF0FF3BDFF8F481DFF8F4A1D1
:1021A000FF26A146D9E100235F465A466946E06909
:1021B00003F0D7F99DF80B0010284ED19DF80D00C3
:1021C0004328FAD19DF810209DF80F1072A005F059
:1021D000E1FD9DF810309DF80F2074A105A805F0D1
:1021E000E9FD05A95546504600F00EFD142105A84D
:1021F00004F051FF9DF812209DF811106FA005F01A
:10220000C9FD9DF812309DF8112068A105A805F0C0
:10221000D1FD05A9284600F0F7FC142105A804F01B
:102220003AFF11A00823D0E90010CDE90A100AAA4C
:10223000002140F2DF7002F005FBE06903F0C2FB11
:102240000028FAD000233A466946E06903F089F98C
:102250009DF80B00212800D1BAE0E9E00209020054
:1022600000000000280000203000000000000000F6
:1022700056494E3A25730D0A00000000D0ADD2E950
:10228000A3BA43414E5F3530304B5F3131420D0AC6
:102290000000000043414E5F3530304B5F3131422A
:1022A000206973206E6F7420737570706F72740D77
:1022B0000A000000F133DB18D0ADD2E9A3BA4341E4
:1022C0004E5F3530304B5F3239420D0A000000005E
:1022D00043414E5F3530304B5F32394220697320C5
:1022E0006E6F7420737570706F72740D0A00000049
:1022F000C1ACBDD3B3C9B9A6A3A1A3A1D0ADD2E946
:10230000A3BA43414E5F3235304B5F3131420D0A43
:102310000000000043414E5F3235304B5F313142A7
:10232000206973206E6F7420737570706F72740DF6
:102330000A000000D0ADD2E9A3BA43414E5F323566
:10234000304B5F3239420D0A0000000043414E5FBE
:102350003235304B5F323942206973206E6F742002
:10236000737570706F72740D0A000000B5B1C7B05C
:102370004F4244B2BBD6A7B3D643414ED0ADD2E90B
:10238000A3ACBBF2D5DFCEB4B2E5C8EB00000000D1
:10239000C400002000480040444354313A502530E6
:1023A0003278253032780D0A000000004443543A58
:1023B0005025303278253032780D0A0044435432AB
:1023C0003A5025303278253032780D0A000000006E
:1023D0009DF80D209DF80C10D2A005F0DBFC9DF8B7
:1023E0000D309DF80C20AFF23C0105A805F0E2FC91
:1023F00005A9284600F008FC142105A804F04BFEAE
:102400009DF80F209DF80E10CBA005F0C3FC9DF8A1
:102410000F309DF80E20AFF26C0105A805F0CAFC44
:1024200005A9284600F0F0FB142105A804F033FEAE
:102430009DF80C0041287CD10025C44F86E005EBB7
:10244000450208EBC2049DF80D10607B81427CD1EF
:10245000BFA1206904F02AFE90B19DF80E10BDA026
:1024600005F098FC9DF80E20BAA10AA805F0A2FC80
:102470000AA9504600F0C8FB14210AA804F00BFE7C
:10248000B7A1206904F012FEE0B19DF80F009DF89D
:102490000E1000EB01208108B2A005F07BFC9DF836
:1024A0000F009DF80E1000EB01208208ADA10AA8D4
:1024B00005F080FC0AA9504600F0A6FB14210AA8EA
:1024C00004F0E9FDAAA1206904F0F0FDD0B19DF867
:1024D0000E0064214843B0FBF6F1A8A005F05AFCB9
:1024E0009DF80E0064214843B0FBF6F2A3A10AA8B0
:1024F00005F060FC0AA9504600F086FB14210AA8EA
:1025000004F0C9FDA1A1206904F0D0FD90B19DF8AF
:102510000E0064214843B0FBF6F19DA005F03AFCA3
:102520009DF80E0064214843B0FBF6F298A10AA87A
:1025300001E00FE009E005F03DFC0AA9504600F07B
:1025400063FB14210AA804F0A6FD6D1C38788542AF
:10255000FFF675AF642003F040FD4C46D9F81C002F
:1025600003F030FA0028F8D01DE64FF47A7003F03B
:1025700034FD894D686801282BD0022829D04FF4FA
:10258000FA7002F037F96868012824D0042822D0B4
:102590000420824603F04EFF4FF0000BDFF8AC81C1
:1025A00003F048FFD5E90C164FF47A72A1FB024CF8
:1025B00006FB02C2002701FB072102194BEB0103B6
:1025C00076A005F0E7FB00247B4F7C4E4FF001091D
:1025D00017E0FA20D5E70020DBE7385D80B104EB97
:1025E000440006EBC0005146437B027B406802F08A
:1025F00045F9142003F0F1FC287808B985F800901B
:10260000641C98F80000401C8442C9DAE5E77CB5F8
:1026100004F098FC00221421802002F0CDFD5E4CD5
:10262000E06118B300220121642002F0C5FD2062A0
:10263000F0B100220121642002F0BEFD6062C8B149
:1026400001210022880202F0B7FDA0620825AE0138
:1026500090B1514800230C30CDE90050324658A1CA
:102660005C4803F0F4FA012806D008E0206ADFE7AE
:10267000606AE4E7A06AE9E757A005F08BFB4648EB
:1026800000231030CDE9005032464DA1594803F0E7
:10269000DEFA012802D158A005F07CFB3E48002359
:1026A0001430CDE9005032465AA15E4803F0CFFA0B
:1026B000012802D15CA005F06DFB374902201831DA
:1026C000CDE90001002332465EA1624803F0BFFA63
:1026D000012802D160A005F05DFBA06803F0E2FADA
:1026E000BDE87C4004F048BC1CB54FF44070FDF7D9
:1026F00033FE00F015FD00F0D9F802F0BDFC2649CC
:1027000001200831CDE90001420200235AA15E48B0
:1027100003F09DFA012802D04FF0FF301CBD03F0FA
:1027200040FEFEE7444354333A502530327825309A
:1027300032780D0A00000000444354343A502530EA
:102740003278253032780D0A00000000C0000020E9
:10275000565353005653533A25640D0A00000000A7
:1027600052504D0052504D3A25640D0A00000000B1
:102770004C4F41445F504354000000004C4F4144D3
:102780005F5043543A25640D0A0000005450000085
:1027900054503A25640D0A002800002061736B64D0
:1027A0006174615F74696D657374616D705F6D7381
:1027B0003A256C6C640D0A001C030020C400002044
:1027C0004F42445F676574646174615F5461736B09
:1027D000000000006B250008B4B4BDA84F42445F60
:1027E00061736B646174615F5461736BB3C9B9A643
:1027F000210D0A007F210008B4B4BDA84F42445FF8
:10280000676574646174615F5461736BB3C9B9A621
:10281000210D0A0041544B424C4530325F546173E4
:102820006B00000047210008B4B4BDA841544B42DE
:102830004C4530325F5461736BB3C9B9A6210D0AA0
:10284000000000004F4244544553545F5461736B81
:1028500000000000451E0008B4B4BDA84F42445417
:102860004553545F5461736B5F5461736BB3C9B963
:10287000A6210D0A000000004170705461736B4383
:1028800072656174650000000F2600087047FEE75E
:10289000FEE7FEE7FEE7704710B503F0E1FE012812
:1028A00003D0BDE8104004F078BB10BD2DE9F04323
:1028B00087B001210420FEF76AFB01210820FEF702
:1028C00066FB01210420FEF762FB01213020FEF7A8
:1028D0005EFB01218803FEF75AFB01218804FEF705
:1028E0005FFB01214804FEF75BFB01210805FEF7B1
:1028F00057FB4FF40070ADF8100018258DF81350F9
:1029000003268DF8126004A9F948FEF758F94FF430
:102910008067ADF8107004248DF8134004A9F448C2
:10292000FEF74DF9ADF81070F24F8DF813508DF899
:10293000126004A93846FEF742F96002ADF81000B3
:102940008DF8134004A93846FEF739F9ADF8104068
:102950008DF813508DF8126004A9E548FEF72FF9A1
:102960000820ADF810008DF8134004A9E048FEF7E8
:1029700026F9A002ADF810008DF813508DF8126002
:1029800004A9DD48FEF71BF9ADF810408DF813409F
:1029900004A9DA48FEF713F90024DFF864934FF432
:1029A000E136ADF80440ADF808400C250096ADF8CE
:1029B0000640ADF80C40ADF80A5069464846FFF7AE
:1029C000DDF80096CF4EADF80440ADF80840ADF804
:1029D0000640ADF80C40ADF80A5069463046FFF7A6
:1029E000CDF8DFF824834FF41657ADF80440ADF866
:1029F00008400097ADF80640ADF80C40ADF80A501D
:102A000069464046FFF7BAF80097C04FADF804405A
:102A1000ADF80840ADF80640ADF80C40ADF80A50EE
:102A200069463846FFF7AAF8A801FDF795FC25206E
:102A30008DF8140006248DF8154001258DF81750E7
:102A400005A8FDF78EFC27208DF814008DF81540A1
:102A50008DF8175005A8FDF784FC26208DF814008A
:102A60008DF815408DF8175005A8FDF77AFC352034
:102A70008DF814008DF815408DF8175005A8FDF756
:102A800070FC40F22554012221464846FFF7F3F836
:102A9000012221463046FFF7EEF80122214640464A
:102AA000FFF7E9F8012221463846FFF7E4F8012153
:102AB0004846FFF7D6F801213046FFF7D2F801214A
:102AC0004046FFF7CEF801213846FFF7CAF807B0B5
:102AD000BDE8F0837CB500208A4D40F2255400907B
:102AE00021462846FFF77EF901280FD12846FFF737
:102AF00012F98DF80400864800236A4601A900688F
:102B000002F022FE21462846FFF769F900980028C6
:102B100007D080494FF080500860BFF34F8FBFF35C
:102B20006F8F7CBD7CB50020774D40F2255400901E
:102B300021462846FFF756F901280FD12846FFF70E
:102B4000EAF88DF80400744800236A4601A9006879
:102B500002F0FAFD21462846FFF741F900980028C7
:102B600007D06C494FF080500860BFF34F8FBFF320
:102B70006F8F7CBD7CB50020644D40F225540090E1
:102B800021462846FFF72EF901280FD12846FFF7E6
:102B9000C2F88DF80400614800236A4601A9006864
:102BA00002F0D2FD21462846FFF719F900980028C7
:102BB00007D058494FF080500860BFF34F8FBFF3E4
:102BC0006F8F7CBD10B50446FFF7A1F88021204629
:102BD000FFF7FEF80028F9D010BD2DE9F0411546A9
:102BE0000E460746002405E0315D3846FFF7EAFF50
:102BF000641CE4B2AC42F7D340213846FFF7E8F852
:102C00000028F9D0BDE8F08170B50D4606460024D5
:102C10003046295DFFF7D6FF641C285D0028F7D1F8
:102C200040213046FFF7D4F80028F9D070BD70B5C8
:102C30000446080ACDB201462046FFF768F8802115
:102C40002046FFF7C5F80028F9D029462046FFF7AF
:102C50005EF880212046FFF7BBF80028F9D070BD50
:102C600070B5274D0446C1B22846FFF750F88021C1
:102C70002846FFF7ADF80028F9D0204670BD10B502
:102C80001F4C20212046FFF7A3F80028F9D020464A
:102C9000BDE81040FFF73FB82DE9F843204F00266C
:102CA00097F85000002871D0B04687F85080394618
:102CB0001CA005F06FF84FF001090FE076B1641C1D
:102CC0001AA1204604F0F2F9050066D0072E3ED284
:102CD000DFE806F03D3438484D52570013A1104844
:102CE00004F0E4F904005CD1012111A057E00000D8
:102CF00000080140000C0140001001400014014098
:102D000000380140004800400044004000500040AE
:102D10004800002004ED00E04C000020500000209E
:102D2000A803002025730D0A000000002C000000FD
:102D30004552524F5225640D0A0000002A1B2146BD
:102D4000B44802E02A1B2146684604F08BF987F854
:102D500051909DF800002C464946412817D056282E
:102D60001FD117E0AB482A1B21460B30EDE7A948DD
:102D70002A1B21461630E8E7A6482A1B21461830B0
:102D8000E3E7A4482A1B21462430DEE70DE087F85C
:102D9000781006E087F8788003E001219EA004F017
:102DA000F9FF761CF6B2062E88D997F8780000282D
:102DB00005D1BDE8F84301219BA004F0EBBFBDE8BD
:102DC000F88330B5A1B08021684604F064F9914CD5
:102DD000523C94F85100002848D0002584F8515006
:102DE00095A004F0D7FF8B4999A004F0D3FF8DA0E4
:102DF00004F0D0FF94F87800002839D084F8785097
:102E000094A004F0C7FF04F15D010C4690A004F00B
:102E1000C1FF84A004F0BEFF94A004F0BBFF7D4975
:102E20008BA0163104F0B6FF7EA004F0B3FF94A08F
:102E300004F0B0FF774986A0183104F0ABFF79A009
:102E400004F0A8FF94A004F0A5FF724980A02431EB
:102E500004F0A0FF73A004F09DFF224693A16846F2
:102E600004F0A8FF69469548FFF7CEFE21B030BDBB
:102E700093A004F08FFFF9E770B586B005460020F7
:102E800000900190029003900490059095F87800CE
:102E90000C4600282CD005F15D010B220E46684639
:102EA00004F016F905F16A010B220D4603A804F09F
:102EB0000FF90B223146204604F00AF90B2229466D
:102EC00004F10B0004F004F9684605F083FCC4E942
:102ED000080103A805F07EFCC4E90601D4E9082333
:102EE0007EA004F057FFD4E9062380A004F052FF2F
:102EF00006B070BD824910B5804A0B78D0545B1C77
:102F0000D8B2087014780023552C53D10B2852D313
:102F1000507850380A284DD2DFE800F0050D151D15
:102F2000252D353B414752F8020FC1F80200506889
:102F3000C1F806003EE052F8020FC1F80A005068DE
:102F4000C1F80E0036E052F8020FC1F812005068C6
:102F5000C1F816002EE052F8020FC1F81A005068AE
:102F6000C1F81E0026E052F8020FC1F82200506896
:102F7000C1F826001EE052F8020FC1F82A0050687E
:102F8000C1F82E0016E052F8020F486350688863BB
:102F900010E052F8020FC863506808640AE052F863
:102FA000020F48645068886404E052F8020FC86455
:102FB000506808650B7010BD70B5524E0546002470
:102FC0003046295DFFF7FEFD641CE4B2052CF7D303
:102FD00070BD70B54A4C494A00256178FA325054A8
:102FE000491CC8B260701178242910D111280FD360
:102FF00045A1104604F089F848B9484E0120C6F8AA
:10300000A001642006F5D07602F0E7FF3560657018
:1030100070BD0000FA0300204E4D4541204552523C
:103020004F5225640D0A0000677073CAFDBEDDCEE5
:10303000DED0A725640D0A00536176655F44617494
:10304000612E55544354696D65203D2000000000F9
:1030500025730000536176655F446174612E6C6175
:10306000746974756465203D2000000053617665C5
:103070005F446174612E4E5F53203D2000000000CC
:10308000536176655F446174612E6C6F6E6769741D
:10309000756465203D200000536176655F4461746E
:1030A000612E455F57203D20000000004C6174698F
:1030B000747564653A25730D0A00000000480040ED
:1030C0004750532044415441206973206E6F74204F
:1030D00075736566756C6C210D0A00006C6F6E6708
:1030E00069747564653A25660D0A00006C6174693F
:1030F000747564653A25660D0A00000021040020FD
:1031000060000020005000402446617469677565C6
:1031100044726976696E670D0A00000000802142E2
:103120003EB501211020FDF73BFF40F2CF70ADF816
:10313000040047201A4CADF8000069462046FEF70F
:103140000DF801212046FEF7D7FC01212046FEF7AD
:10315000ADFA3EBD124900228A848A8C8242FCD399
:10316000704730B5044600234FF47A7503E02846D3
:10317000FFF7F0FF5B1CA342F9D330BD10B5084C3C
:1031800001212046FEF792FA0021A1842046818C7D
:103190000229FCD3BDE810400021FEF787BA0000E9
:1031A00000100040F8488068704770B504000D4674
:1031B00001D00DB108E009B1012070BD002070BD43
:1031C0000028FCD0641C6D1C207803F045FF0646E7
:1031D000287803F041FF86422078F1D003F03CFFCD
:1031E0000446287803F038FF201A70BDE64A10B173
:1031F000016821B902E0E548106003E0E34911608D
:10320000406800B9E2485060704770B50446DE4E31
:1032100019E0A0892568C0050AD4A06820B1FFF78D
:10322000F4FFA089C00503D4206908B171688847FC
:10323000A089800503D4206A08B171688847716845
:10324000204688472C46002CE3D170BD2DE9F34F72
:10325000002583B00C46CF490120CDE900510290F2
:1032600020782E462F46A846A9462D2804D10020B6
:10327000C949641CCDE900012078302800D1641CC4
:1032800020783138082816D814F8010B303804F0AB
:103290007BF882468B460022C04B2846314604F01C
:1032A00001F852465B4603F056FF054620780E466D
:1032B00030380928E8D920782E2824D160783028A1
:1032C00041D339283FD8641C14F8010B303804F07E
:1032D0005BF882468B460022B04B2846314603F00D
:1032E000E1FF52465B4603F036FF05460E460022DC
:1032F000A84B3846414603F0CFFF07462078884662
:1033000030380928E0D92078652801D045281AD11D
:1033100014F8010F2B2802D02D2810D000E0641CD7
:103320006FF02F022078A0F1300109290BD809EBAA
:10333000890102EB410100EB0109641CF2E74FF047
:10334000FF300290EBE7029909FB01F004F01CF852
:103350003A46434603F0FFFE02460B4600208F49E3
:1033600005F01AFB07468846DDE900012A46334688
:1033700003F098FF43463A4603F094FF039AC2E9EC
:10338000060104F02BF80399486103980321C160FA
:1033900005B02046BDE8F08F2DE9F041040009D0CA
:1033A00022683AB1A36858186168814204DBD018DA
:1033B000BDE8F0810020FBE7401E40EA600040EAE3
:1033C000A00040EA2010704E40EA202040EA20474A
:1033D0007F1C31683846884705000BD0D4E90012BD
:1033E00003F040FE716820688847C4E90057A06870
:1033F0002844DDE77168206888470020606020600D
:10340000D8E72DE9F04707460E46D7E90605002222
:10341000DFF87481DFF8889104461346294604F0EA
:103420000FF80FD126B102213046FFF7B5FF03E0B8
:10343000D8F8001002208847060071D059A00088F3
:1034400030806DE0786903F09FFF22462B4603F041
:1034500023FF21F0004100224B4603F0F1FF1ED86C
:10346000514A524B2046294603F0EAFF17D8002262
:103470004F4B2046294603F0FBFF10D826B11521FB
:103480003046FFF789FF03E0D8F800101520884781
:10349000060045D047A17A6904F08CFC40E026B1D3
:1034A00040213046FFF778FF03E0D8F800104020B5
:1034B0008847060034D02046294605F0A1F9224667
:1034C0002B4603F0E9FE21F0004100224B4603F0B9
:1034D000B7FF0BD8204625F00041374A374B03F0A1
:1034E000AFFF03D222462B4635A116E025F000415E
:1034F00020460F46344A354B03F0A2FF06D3204640
:1035000039460022324B03F0B3FF03D222462B464A
:1035100030A102E022462B462FA1304604F04AFC9F
:103520003046BDE8F0870178A1F13002092A01D8C0
:1035300011460AE0A1F14102052A01D8373904E019
:10354000A1F16102052A6AD857390A0110F8011F52
:10355000A1F13003092B01D8303A0AE0A1F141036F
:10356000052B01D8373A04E0A1F16103052B56D8A9
:10357000573A11440A0110F8011FA1F13003092B39
:103580002CD8303A35E00000B40000202D89000826
:10359000DD8800080000F03F0000F0BF000024407C
:1035A0000000B03C300000000000C0FFFFFFDF4122
:1035B0000000E0C12564000044F3C2E4E4E9634C88
:1035C000252E3066000000008DEDB5A0F7C6B03E98
:1035D00065CDCD412565000025660000A1F14103C0
:1035E000052B01D8373A04E0A1F16103052B16D869
:1035F000573A114440780901A0F13002092A01D854
:10360000303904E0A0F14102052A02D837390844D4
:103610007047A0F16102052A01D85739F7E7002069
:1036200070472DE9F0470D464C1C81460978002073
:10363000F64A222905D0956073E7641C5C2900D105
:10364000641C2178222902D009B1401CF5D11168EF
:10365000401C88470700EFD0681C3C464FF4806848
:1036600079E05C2903D004F8011B401C73E0461C80
:103670004078722814D006DC622809D0662809D068
:103680006E2808D10AE074280CD0752803D10BE00D
:10369000082000E00C2004F8010B5BE00A20FAE7A8
:1036A0000D20F8E70920F6E7701CFFF73CFF054600
:1036B000A0F55C40361D40454CD3EDB3A5F5584010
:1036C000404513D270785C2844D1B078752841D138
:1036D000F01CFFF728FFA0F55C41B61D414539D22B
:1036E000C5F3090161F39F2000F580350421802D89
:1036F00001D2012108E0B5F5006F01D2022103E0FB
:10370000B5F5803F00D20321601801291CD00229A1
:1037100011D0032908D004291BD105F0BF0242F0C3
:10372000800200F8012DAD0905F0BF0242F08002D1
:1037300000F8012DAD0900E00CE005F0BF0242F0F9
:10374000800200F8012DAD09B14A525C2A4300F80D
:10375000012D4418701C0178222901D0002980D144
:10376000002121700178222900D1401C0422C9E9DE
:103770000327D6E62DE9F05F002488460546224659
:1037800009E04B1E1F2B14D3222912D05C2910D024
:1037900000210A43401C01780029F2D1DFF86C9225
:1037A0008B464FF0220AD9F8001022B1EDB12E4617
:1037B00037E00121EDE7461B5FEA080003D0F11C6A
:1037C000FFF7EAFD01E0F01C8847040041D0671CC8
:1037D000D04684F800A02946384603F0A4FCB91965
:1037E00007F8068081F801B00DE05FEA080003D019
:1037F0000321FFF7D1FD01E003208847040028D012
:1038000084A103F090FC2046BDE8F09F394682A0D9
:1038100003F06AFC08B1641C02E0202F00D2641D92
:10382000761C37780FB1641CF0D15FEA080003D032
:10383000E11CFFF7B1FD03E0D9F80010E01C884758
:10384000060006D0574680F800A0741C4FF05C08B4
:1038500025E00020D8E71F2807D9222805D05C28BA
:1038600003D004F8010B6D1C19E004F8018B15F866
:10387000012B40460C2A1FD006DC082A1AD0092A40
:1038800020D00A2A06D119E00D2A19D0222A0ED0FA
:103890005C2A18D062A1204604F08CFA641D2878B6
:1038A0000028D8D1277084F801B03046ACE704F87E
:1038B000017BF4E7622006E0662004E06E2002E06F
:1038C000722000E0742004F8010BE8E72DE9F041D4
:1038D000074608784D4E7B2801D0B16030E00620C5
:1038E000F860481C00F086FE054600787D2842D02E
:1038F00000F063FE0400B86023D0284600F07AFE92
:1039000001462046FFF78DFE00F074FE002818D017
:1039100021690027216229E0B06011E0401C00F01D
:1039200069FE0146204600F028F800F063FE05001D
:1039300007D028782C2805D028787D281BD0B560A2
:10394000002035E500F039FE0028FAD02060446000
:103950000446681C00F04EFE01462046FFF761FE5B
:1039600000F048FE0028ECD021692162276101782F
:103970003A29D3D0D0E7681C1AE570B50C0005468B
:103980001FD0042228A1204603F0D6FBD8B105227F
:1039900027A1204603F0D0FBC0B1042226A1204677
:1039A00003F0CAFBB0B12078222818D02D2803D00C
:1039B000A0F13001092917D821462846BDE87040FA
:1039C00044E4002070BD0220E86006E00020E860CA
:1039D000601D70BD0120E8606861201D70BD21463A
:1039E0002846BDE870401CE65B2804D07B2808D040
:1039F00006488460E5E721462846BDE8704000F0AF
:103A000003BE21462846BDE870405FE7B4000020B1
:103A10009C93000822220000225C080C0A0D090079
:103A200075253034780000006E756C6C0000000065
:103A300066616C73650000007472756500000000BB
:103A40002DE9F04190460E46044600F0B6FD050013
:103A50004FF00000FE4FB86015D0204600F0CAFDC0
:103A600001462846FFF789FF04000ED0B8F1000F89
:103A70000FD0204600F0BEFD0446007848B128462D
:103A8000FFF7C3FBBC60002092E42846FFF7BDFBB4
:103A9000F9E706B1346028468AE400221146CFE7F0
:103AA0002DE9FF4F85B00020009007200190059878
:103AB0004FF0000A1C46806815468B465646CDF8E6
:103AC00008A001E00068761C0028FBD1E04F3968AF
:103AD0002EB1002C7ED0A76855B3022629E044B150
:103AE00015B10BF1040100E003211846FFF754FC67
:103AF00005E015B10BF1040000E003208847002821
:103B000014D07B210170411C65B10A2201F8012B00
:103B100000220923ABF1010402E001F8013B521C31
:103B2000A242FADB7D220A7000224A7009B031E419
:103B30000126711C1846FFF72FFC0028F6D07B21C8
:103B400000F8011B15B10A2100F8011B4FF0000A13
:103B500080F800A0A0680BF101083044A06005982F
:103B600086685BE08DB141462046FFF715FC0028D2
:103B7000DCD00021092202E000F8012B491C41455C
:103B8000FADBA16801EB0800A0602146306AFFF76C
:103B9000F1FD204600F01DFDA0600DB1022000E007
:103BA0000120814601462046FFF7F6FB0028BDD0E4
:103BB0003A2100F8011B0DB109210170A1682346CB
:103BC00001EB0900A0602A464146304600F012FA97
:103BD000204600E041E000F0FCFCA0600DB10120B7
:103BE00000E00020316801B1012100EB010909F179
:103BF00001012046FFF7D0FB002897D0316811B1B2
:103C00002C2100F8011B15B10A2100F8011B80F8D6
:103C100000A0A16801EB0900A0603668002EA1D1C8
:103C200015B108F1010100E002212046FFF7B4FBC5
:103C300000289DD04DB100270921A8F1010202E022
:103C400000F8011B7F1C9742FADB7D21017080F890
:103C500001A020683844009068E7B40020468847F7
:103C60005FEA000917D07A492046096888475FEA69
:103C7000000812D02146484603F00DFA214640467E
:103C800003F009FA05980BF1010B84687DB30198E4
:103C9000584401902FE0002048E76D4948464968A4
:103CA0004CE00021206AFFF765FD039048F82A00E8
:103CB00000232A465946204600F09CF949F82A007C
:103CC00003990AF1010A99B190B103F017FA074676
:103CD000039803F013FA391815B10BF1020000E054
:103CE0000020014401980844801C019002E002E099
:103CF000012002902468002CD3D1029808B10098CA
:103D000004E05349019809688847009008B1029877
:103D1000B0B100244E4D0AE058F8240008B169689B
:103D2000884759F8240008B169688847641CB44280
:103D3000F2DB696840468847696848468847AAE7D1
:103D400000997B200870009C641C15B10A2004F8BF
:103D5000010B0020207007463EE03DB10020092104
:103D600002E004F8011B401C5845FADB58F8270014
:103D700003F0C4F9824658F827105246204603F053
:103D800071F954443A2004F8010B15B1092004F8E4
:103D9000010B59F82710204603F0C5F959F8270000
:103DA00003F0ACF90444701E874202D02C2004F8C2
:103DB000010B15B10A2004F8010BDFF894A00020D4
:103DC0002070DAF8041058F827008847DAF8041051
:103DD00059F8270088477F1CB742BEDB1C4E40467F
:103DE000716888477168484688474DB100200921AD
:103DF000ABF1010202E004F8011B401C9042FADB27
:103E00007D2020700020607000988FE62DE9FF4F24
:103E100081B04FF0000A01981C4690464FF0050B08
:103E200080685646D146554601E00068761C002859
:103E3000FBD1074A1168A6B1002C5CD001211846BD
:103E4000D4F80890FFF7A8FA002818D05B2101E009
:103E5000B40000200170A068401CA0600198866832
:103E600038E024B103211846FFF796FA01E0032059
:103E70008847040002D0F7A103F055F9204605B0A9
:103E8000BDE8F08F0299234642463046491C00F0B7
:103E9000B1F8204600F09DFBA0603068C8B1B8F1D1
:103EA000000F01D0022700E00127791C2046FFF710
:103EB00073FA0028E3D02C2100F8011BB8F1000FA1
:103EC00002D0202100F8011B00210170A0683844B5
:103ED000A06036680EB1002DD4D002212046FFF735
:103EE0005BFA0028CBD05D21017000214170216870
:103EF00001EB090A7CE0B40020468847070005D0A2
:103F0000214603F0C8F8019884681CE00020B6E759
:103F10000299002342462046491C00F06BF847F8FE
:103F2000290009F1010960B103F0E8F801465FEAF0
:103F3000080000D00120014401EB0B0000F1020B4E
:103F400000E00125246814B1002DE1D005E025B979
:103F5000C1495846096888478246BAF1000F00D027
:103F600075B10024BC4D05E057F8240008B169681C
:103F70008847641CB442F7DB696838468847C5E760
:103F80005B204FF000098AF800000AF101048AF86A
:103F900001904D46DFF8C0B220E057F8250003F04D
:103FA000ADF80090024657F82510204603F05AF865
:103FB00000980444701E85420AD02C2004F8010B9E
:103FC000B8F1000F02D0202004F8010B84F8009013
:103FD000DBF8041057F8250088476D1CB542DCDB80
:103FE000DBF80410384688475D20207084F8019083
:103FF000504644E770B5002400284ED07BB3057BC3
:10400000072D49D2DFE805F00D18042123252800EB
:1040100005211846FFF7C0F904003DD0AFF2F85172
:1040200007E006211846FFF7B7F9040034D0AFF2D5
:10403000006103F078F82FE005211846FFF7ACF98E
:10404000040029D0AFF21061F3E719461DE01946CC
:104050001FE0FFF7DBFE1EE0FFF722FD1BE0FFE79E
:10406000037B072B18D2DFE803F0070C040F1319AA
:104070001B00AFF24C6001E0AFF24C6000F08CFA34
:1040800009E0AFF24C60F9E70021FFF7BAF902E06E
:10409000002100F0ACFA0446204670BD0023D8E7AA
:1040A0000023D9E7002301221946A3E700231A467B
:1040B00019469FE7FEB506460C4608466649154672
:1040C00009688847CDE900040020014602906B464C
:1040D0002A463046FFF78EFFFEBD8168002001E0D2
:1040E0000968401C0029FBD17047806801E0006826
:1040F000491E002801D00029F9DC704770B50D4633
:10410000846800E024682CB12946206AFFF74DF846
:104110000028F7D1204670BD70B5054600F04DFA75
:1041200004000DD02822294602F09CFF00202062C6
:10413000E168606041F48071E1602060204670BDFC
:10414000002070BD8268002901D01AB981607047D3
:10415000020002D010680028FAD111604A6070474E
:1041600070B514000D4606460DD0206A10B13A49CC
:1041700049688847284600F00FFA206221463046F9
:10418000BDE87040DEE770BD70B514000D46064610
:1041900011D0A089800504D4206A10B12E49496845
:1041A00088472562E068214640F40070E0603046B0
:1041B000BDE87040C6E770BD10B504460846FFF77D
:1041C000ABFF01462046BDE81040BBE770B5054691
:1041D0000C461046FFF7A0FF024621462846BDE8E0
:1041E0007040BDE70246806801E00068491E002873
:1041F00011D00029F9DC416809B103680B6001683E
:1042000009B143684B609168814201D101689160B6
:10421000002101604160704710B5FFF7E3FFBDE882
:104220001040FEF7F2BF2DE9F0410F46064600258B
:10423000846801E024686D1C54B13946206AFEF799
:10424000B4FF0028F6D129463046BDE8F041C9E761
:10425000002019E45B5D0000B400002010B5FFF7FA
:10426000E2FFBDE81040FEF7D0BF836801E01B68A5
:10427000491E53B10029FADC1360596851605A6035
:104280008168994203D18260704711465AE75068AD
:104290000260704730B40346806801E00068491E40
:1042A000002814D00029F9DC0168116044685460CA
:1042B00001B14A609968814201D19A6001E0516878
:1042C0000A6000214160016030BCFEF79EBF30BC37
:1042D00070472DE9F0411646884607460025846858
:1042E00001E024686D1C002CB3D04146206AFEF723
:1042F0005CFF0028F5D1404600F04EF930623246AE
:1043000029463846BDE8F041C4E7A2E710B500F001
:1043100054F9002801D00221C16010BD10B500F091
:104320004CF9002801D00121C16010BD10B500F08A
:1043300044F9002801D00021C16010BD10B5044629
:1043400000F03BF9002804D00CB1012100E000216D
:10435000C16010BD70B505460E4600F02EF9040090
:1043600008D00320E060C4E906562846314603F031
:1043700035F86061204670BD70B5054600F01DF946
:10438000040005D00420E060284600F005F9206113
:10439000204670BD10B500F010F9002801D00521AD
:1043A000C16010BD10B500F008F9002801D0062149
:1043B000C16010BD2DE9F0410F4680460025FFF792
:1043C000E9FF064600240AE058F8240002F0DCFF6A
:1043D000FFF7C0FF44B1286045600546641C0EB17C
:1043E000BC42F1DB304634E7B060F6E72DE9F0413E
:1043F0000F4680460025FFF7CDFF064600240AE061
:1044000058F8240003F009F8FFF7A4FF44B128602E
:1044100045600546641C0EB1BC42F1DB304618E72E
:10442000B060F6E72DE9F0410F4680460025FFF722
:10443000B1FF064600240CE008EBC400D0E90012EE
:1044400008461146FFF786FF44B1286045600546DF
:10445000641C0EB1BC42EFDB3046FAE6B060F6E712
:104460002DE9F0410F4680460025FFF793FF0646F1
:10447000002408E058F82400FFF77EFF44B12860CC
:1044800045600546641C0EB1BC42F3DB3046E0E6F5
:10449000B060F6E72DE9F0410F4606004FF000044A
:1044A0001CD000F08AF8050019D0F06820F4807064
:1044B000E86070696861D6E90601C5E906013069FE
:1044C00018B100F069F8286198B1306A18B100F0AD
:1044D00063F8286268B1AFB1B66811E00020B8E6B1
:1044E00001213046FFF7D6FF18B134B12060446097
:1044F00004E02846FEF789FEF0E7A8603668044627
:10450000002EEDD12846A4E601461AE0D2B2202AB8
:104510000BD0092A09D00D2A07D00A2A05D02F2A44
:1045200005D0D3B2222B23D007E0401C09E042780B
:104530002F2A0CD0D2B22A2A10D010F8012B01F861
:10454000012B0278002AE1D100200870704710F892
:10455000012F002AF8D00A2AF9D1D7E710F8012F45
:1045600022B12A2AFAD142782F2AF7D1801CE8E713
:1045700001F8012B401C08E05C2A02D101F8012B54
:10458000401C10F8012B01F8012B02780AB1222AF5
:10459000F2D101F8012BC8E770B5054602F0AEFD77
:1045A0003949461C304609688847040004D0324621
:1045B000294602F057FD204670BD334910B5096801
:1045C00028208847040002D0282102F064FD2046FC
:1045D00010BD10B5040008D0206830B1A1680844AF
:1045E00002F08CFDA168084410BD002010BD0069D8
:1045F000FFF7C0B800E0401C002804D00178002973
:1046000001D02029F7D970472DE9F04107460878F5
:104610001D4E5B2801D0B16032E00520F860481CD7
:10462000FFF7E8FF044600785D282BD0FFF7C5FFB1
:104630000500B86025D02046FFF7DCFF014628467C
:10464000FFF79BF9FFF7D6FF04001AD011E0FFF740
:10465000B4FF002815D0286045600546601CFFF7B0
:10466000C9FF01462846FFF788F9FFF7C3FF04009A
:1046700006D020782C28EAD020785D2802D0B460BB
:104680000020E6E5601CE4E5B40000200FB42DE94D
:10469000F047867B0546B000DDF838A004F046F907
:1046A00080469DF83010287B002440F040009DF8A3
:1046B00031708946814202D1687B874208D0FBA0D5
:1046C000296903F067FB3A464946FDA003F062FB07
:1046D00009A804E001198A7B48F82420641CB4422C
:1046E000F8DBA97B4046FFF765FE02465046296984
:1046F000FFF736FD4046BDE8F0075DF814EB04F027
:10470000EDB810B503460022104602E09C5C521C36
:1047100020448A42FADB10BD4FF47A71B1FBF0F00D
:10472000F0B5850089B001210520FCF730FC01219E
:104730004806FCF735FC4FF40060ADF81C00042778
:10474000ED4E8DF81F7003248DF81E4007A93046EA
:10475000FCF735FAB014ADF81C0018208DF81F00D6
:104760008DF81E4007A93046FCF729FAE34E304683
:10477000FBF74AFE6846FBF72FFF00248DF8064042
:104780008DF807408DF802408DF8047002208DF8F6
:1047900003408DF805000294ADF80050694630469C
:1047A000FBF745FE8DF8164001258DF817408DF872
:1047B0001850ADF80C40ADF81040ADF80E40ADF813
:1047C0001240ADF814408DF8195003A8FBF7A3FE72
:1047D00014208DF8200006208DF821008DF823503C
:1047E00008A8FBF7BEFD012202213046FCF7C2F803
:1047F00009B0F0BD90E710B586B00020BF4C059021
:1048000002212046FCF7EEF858B16A460021204606
:10481000FBF7CCFFBA48002305AA6946006800F000
:1048200093FF02212046FCF72EF90598002807D0B7
:10483000B4494FF080500860BFF34F8FBFF36F8FC4
:1048400006B010BD30B585B059B101908DF8081093
:1048500000208DF8090008208DF80A000020694624
:1048600005E00090F2E7145C0D18401CEC729842D1
:10487000F9DBA248FBF70AFF05B030BDF0B585B003
:104880000C4607461D4616461421684602F003FCF6
:10489000B4B19D4801908DF8084000208DF80900C2
:1048A00008208DF80A0002208DF80B008DF80C60AE
:1048B0008DF80D5069469148FBF7E8FE05B0F0BD54
:1048C0000097E8E72DE9FF5F82460EA8DDE9125860
:1048D00090E8C0028B46FFF765FD0446584602F09B
:1048E00064FDFFF737FD024688A12046FFF738FC3C
:1048F000029802F05AFDFFF72DFD024684A12046E2
:10490000FFF72EFC039802F088FDFFF723FD024617
:1049100080A12046FFF724FC304602F07EFDFFF721
:1049200019FD02467CA12046FFF71AFC384602F02A
:104930003CFDFFF70FFD02467AA12046FFF710FC71
:10494000484602F06AFDFFF705FD024676A12046C3
:10495000FFF706FC2846414602F034FDFFF7FAFC5B
:10496000024672A12046FFF7FBFB2046FFF79AFBA9
:10497000054602F0C3FB01466FA003F00BFA29467F
:1049800073A003F007FA2946504602F0CCFB2046FC
:10499000FEF73BFC284602F0EAF902F018FA04B0F0
:1049A0000146BDE8F05F6BA003F0F4B97CB5D8B266
:1049B000089D1C46412803D1C4F307200D2802D0CE
:1049C0006BA003F0E7F9C4F30740009001216846AB
:1049D000FFF7F0FC02464DA12846FFF7C1FB7CBD66
:1049E0007CB5D8B2089D1C46412803D1C4F30720EA
:1049F0000C2802D064A003F0CDF9C4F30740009066
:104A0000200E019002216846FFF7D4FC024664A103
:104A10002846FFF7A5FB7CBD7CB5D8B2089D1C4697
:104A2000412803D1C4F30720042802D05DA003F07D
:104A3000B1F9C4F30740009001216846FFF7BAFCC2
:104A4000024635A12846FFF78BFB7CBD38B5D8B2AE
:104A5000069D1C46412803D1C4F30720052802D037
:104A600055A003F097F9C4F3074000900121684670
:104A7000FFF7A0FC024654A12846FFF771FB38BDA2
:104A800038B5D8B2069D1C46412803D1C4F307208F
:104A9000062802D04DA003F07DF9C4F30740009032
:104AA00001216846FFF786FC024699E025732072D3
:104AB00065736F6C7665206572726F72210D0A00E6
:104AC00074656D7043414E52784D53472E44617466
:104AD000615B315D3A252378202074656D70434118
:104AE0004E52784D53472E446174615B325D3A25D6
:104AF00023780D0A00000000000801400064004017
:104B00004400002004ED00E0F133DB18565353005D
:104B100052504D00545000004C4F41445F5043549C
:104B2000000000004D4150004D41460074696D6524
:104B30007374616D700000007374726C656E28721E
:104B4000657463686172293A25640D0A00000000EB
:104B500025730A0078506F727447657446726565F4
:104B60004865617053697A6528293A25640D0A0001
:104B700053706565645F466F726D756C6120657218
:104B8000726F72210D0A000052504D5F466F726DB8
:104B9000756C61206572726F72210D0A0000000051
:104BA00050524D004C4F41445F5043542065727247
:104BB0006F72210D0A000000454354206572726F28
:104BC00072210D0A0000000045435400534852541E
:104BD000465431206572726F7221720A0000000023
:104BE000CDA12846FFF7BCFA38BD38B5D8B2069D2E
:104BF0001C46412803D1C4F30720072802D0C8A0CF
:104C000003F0C8F8C4F30740009001216846FFF79D
:104C1000D1FB0246C7A12846FFF7A2FA38BD7CB5F2
:104C2000D8B2089D1C46412803D1C4F307201028A0
:104C300002D0C2A003F0AEF8C4F307400090200EEB
:104C4000019002216846FFF7B5FB0246AFF28801EA
:104C50002846FFF785FA7CBD7CB5D8B2089D1C4676
:104C6000412803D1C4F307200B2802D0B7A003F0DA
:104C700091F8C4F307400090200E0190022168468D
:104C8000FFF798FB0246AFF264112846FFF768FA77
:104C90007CBD38B5D8B2069D1C46412803D1C4F36B
:104CA0000720112802D0ADA003F074F8C4F3074028
:104CB000009001216846FFF77DFB0246AFF2AC1180
:104CC0002846FFF74DFA38BD38B5D8B2069D1C46C8
:104CD000412803D1C4F307200F2802D0A2A003F07B
:104CE00059F8C4F30740009001216846FFF762FBC2
:104CF0000246A1A12846FFF733FA38BD38B5D8B22D
:104D0000069D1C46412803D1C4F307200E2802D07B
:104D10009AA003F03FF8C4F30740009001216846D1
:104D2000FFF748FB02469AA12846FFF719FA38BD5B
:104D30007CB5D8B2089D1C46412803D1C4F3072096
:104D40001F2802D095A003F025F8C4F30740009077
:104D5000200E019002216846FFF72CFB024693A12A
:104D60002846FFF7FDF97CBD7CB5D8B2089D1C46EE
:104D7000412803D1C4F30720232802D08DA003F0DB
:104D800009F8C4F307400090200E01900221684604
:104D9000FFF710FB02468BA12846FFF7E1F97CBD27
:104DA00038B5D8B2069D1C46412803D1C4F307206C
:104DB0002F2802D084A002F0EDFFC4F3074000903A
:104DC00001216846FFF7F6FA024683A12846FFF75D
:104DD000C7F938BD38B5D8B2069D1C46412803D165
:104DE000C4F30720492802D07CA002F0D3FFC4F30B
:104DF0000740009001216846FFF7DCFA02467BA1DC
:104E00002846FFF7ADF938BD38B5D8B2069D1C4627
:104E1000412803D1C4F307205A2802D075A002F01C
:104E2000B9FFC4F30740009001216846FFF7C2FABA
:104E3000024674A12846FFF793F938BD38B5D8B2B9
:104E4000069D1C46412803D1C4F307205C2802D0EC
:104E50006EA002F09FFFC4F3074000900121684656
:104E6000FFF7A8FA02466DA12846FFF779F938BD89
:104E70007CB5D8B2089D1C46412803D1C4F3072055
:104E80005D2802D066A002F085FFC4F307400090C1
:104E9000200E019002216846FFF78CFA024666A1B7
:104EA0002846FFF75DF97CBD7CB5D8B2089D1C464D
:104EB000412803D1C4F307205E2802D061A002F08C
:104EC00069FFC4F307400090200E0190022168465C
:104ED000FFF770FA024660A12846FFF741F97CBD52
:104EE0007CB5D8B2089D1C46412803D1C4F30720E5
:104EF000832802D05BA002F04DFFC4F3074000906E
:104F0000200E019002216846FFF754FA024659A18B
:104F10002846FFF725F97CBD5348525446543100CA
:104F20004C4F4E47465431206572726F72210D0A04
:104F3000000000004C4F4E47465431004D41462082
:104F40006572726F72210D0A000000004D41502001
:104F50006572726F72210D0A0000000054502065C6
:104F600072726F72210D0A00494154206572726F8E
:104F700072210D0A00000000494154005350415273
:104F80004B414456206572726F72210D0A00000079
:104F9000535041524B4144560000000052554E546C
:104FA0004D206572726F72210D0A000052554E54E9
:104FB0004D000000465250206572726F72210D0A3A
:104FC0000000000046525000464C49206572726F46
:104FD00072210D0A00000000464C49004150505F0C
:104FE00044206572726F72210D0A00004150505FBB
:104FF000440000004150505F52206572726F722170
:105000000D0A00004150505F52000000454F5420EF
:105010006572726F72210D0A00000000454F540046
:105020004655454C5F54494D494E47206572726F55
:1050300072210D0A000000004655454C5F54494D51
:10504000494E47004655454C5F52415445206572D4
:10505000726F72210D0A00004655454C5F52415453
:10506000450000004E4F78206572726F72210D0A64
:10507000000000004E4F780038B501210820FBF7F2
:1050800086FF4FF48074ADF8004010208DF80300C7
:105090000320064D8DF8020069462846FBF78FFD78
:1050A00021462846FBF7F7FD38BD0000000C014003
:1050B00000F108014FF0FF32C0E90112C160016147
:1050C00000210160704700210161704742684A6019
:1050D00093688B6093685960916008610168491C0E
:1050E0000160704730B50C68621C02D000F1080204
:1050F00002E0026904E01A4653681D68A542FAD925
:1051000053684B6099608A60516008610168491C6E
:10511000016030BDD0E9013201699A60D0E9012314
:105120005A604A68824201D182684A600022026164
:105130000868401E0860704770B50D46040005D130
:1051400040F21B12F0A1F7A002F024FE01F0FAFEDB
:10515000D4E90F20216802FB001161600021A163E6
:105160002168A1600A46D4E90F01401E00FB01211D
:10517000E16021464FF0FF3001F8440F487004F120
:1051800010004DB1FFF794FF04F12400FFF790FFEA
:1051900001F0F2FE012070BD21690029F8D001F074
:1051A000A6F90028F4D0E3494FF080500860BFF31F
:1051B0004F8FBFF36F8FEBE770B50E46050005D13B
:1051C0004FF4C472D0A1D7A002F0E4FDA6B105FB54
:1051D00006F04C3001F060FD04000CD004F14C00EE
:1051E00066B12060C4E90F5620460121FFF7A4FFF5
:1051F00000212046A16470BD0020EAE72460F1E7A9
:105200002DE9F041856B174604460026026C82B1F9
:10521000C7B1E06801F026FFE168206C091AE1607F
:105220002268914202D26168081AE060022F16D00B
:1052300017E02068A8B9606801F05BFA0646002014
:1052400060600EE0A06801F00DFF216CA0680844CA
:10525000A0606168884204D32068A06001E005B1C5
:105260006D1E6D1CA5633046BDE8F0812DE9F3414C
:105270000F4600980026846C2CB940F6CE12A2A1ED
:10528000A8A002F087FDA06BE16B884205D340F631
:10529000CF129DA1A3A002F07DFDA06BE16B88421F
:1052A0000CD294F945503A4669462046FFF7A8FFCC
:1052B0000646681C05D06D1C84F845503046BDE894
:1052C000FC81606A0028F9D004F1240001F00FF994
:1052D0000028F3D00126F1E72DE9F041044601F062
:1052E00031FE94F9455004F1240610E0A06C20B181
:1052F00000212046FFF7BAFF04E0606A48B130465B
:1053000001F0F5F808B101F0A4F96D1E6DB2002DA1
:10531000ECDC4FF0FF3684F8456001F02DFE01F023
:1053200011FE94F9445004F1100709E0206948B1D6
:10533000384601F0DCF808B101F08BF96D1E6DB252
:10534000002DF3DC84F84460BDE8F04101F014BEA8
:105350002DE9FF4F83B099468B4604004FF00006BD
:1053600005D140F2D92268A16EA002F013FDBBF175
:10537000000F07D1206C28B140F2DA2262A169A0A7
:1053800002F008FDB9F1020F08D1E06B012805D049
:1053900040F2DB225CA163A002F0FCFC01F060F9AA
:1053A00038B9059828B140F2DE2257A15DA002F07D
:1053B000F1FC4FF0000A4FF08057DFF8788101F0E0
:1053C000C1FDA06BE16B884206D3B9F1020F03D097
:1053D000059800B316B325E04A4659462046FFF724
:1053E0000FFFA16C21B149462046FFF73FFF05E0C2
:1053F000616A19B104F1240001F079F828B1C8F804
:105400000070BFF34F8FBFF36F8F01F0B5FD012028
:1054100007B0BDE8F08F01F0AFFD21E0684601F074
:10542000D4F8012601F0A8FD00F074FD01F08AFD1A
:1054300094F94400401C01D184F844A094F945003B
:10544000401C01D184F845A001F096FD05A96846ED
:1054500001F0CCF830B12046FFF73EFF00F0CCFC65
:105460000020D5E701F06EFDA06BE16B884201D111
:10547000012500E0002501F07FFD95B104F1100049
:10548000059900F0F6FF2046FFF726FF00F0B4FC78
:10549000002894D1C8F80070BFF34F8FBFF36F8F0F
:1054A0008DE72046FFF718FF00F0A6FC87E710B550
:1054B000024600210120FFF77FFE040007D00021F3
:1054C000416001600B460A46C160FFF741FF20467C
:1054D00010BD10B5040005D140F241220AA111A06F
:1054E00002F058FC01F0B9F86168884224D1E06804
:1054F000401EE06005D100231A4619462046FFF7FA
:1055000027FF012010BD00002E2E5C2E2E5C46725F
:10551000656552544F535C7372635C717565756554
:105520002E6300004572726F723A25732C25640D4C
:105530000A00000004ED00E00020E3E730B4026C54
:105540000B46002A0BD0C1681144C1604468A142D7
:1055500001D30168C16030BC184601F083BD30BC86
:1055600070472DE9FF4F83B09B468A4604004FF0F9
:10557000000607D140F2DC42AFF27401AFF25C00EA
:1055800002F008FCBAF1000F09D1206C38B140F2EA
:10559000DD42AFF28C01AFF2740002F0FBFB01F0D0
:1055A0005FF848B9059838B14FF49C62AFF2A80192
:1055B000AFF2900002F0EEFB4FF000094FF0805781
:1055C000DFF8C48501F0BEFCA56B35B3514620461B
:1055D000E668FFF7B3FFBBF1000F11D0E660606A29
:1055E00050B104F1240000F082FF28B1C8F8007027
:1055F000BFF34F8FBFF36F8F01F0BEFC012007E7B1
:105600006D1EA563206810B901F0C5F860602069BF
:105610000028F1D004F11000E5E7059808B11EB1AB
:1056200006E001F0A9FC27E0684600F0CEFF012665
:1056300001F0A2FC00F06EFC01F084FC94F944003F
:10564000401C01D184F8449094F94500401C01D1DC
:1056500084F8459001F090FC05A9684600F0C6FF6B
:10566000002820460AD0FFF737FE00F0C5FB204691
:1056700000F07DFA0028A5D00020C9E600F077FAF6
:10568000D8B1206830B901F05DFC606800F0F3FF2C
:1056900001F072FC04F12400059900F0EAFE2046B6
:1056A000FFF71AFE00F0A8FB00288BD1C8F80070A5
:1056B000BFF34F8FBFF36F8F84E72046FFF70CFED9
:1056C00000F09AFB7EE770B50D46040007D14FF459
:1056D0001E72AFF2CC11AFF2B41002F05BFB00F01F
:1056E000BCFF6168884204D1E068401CE060012092
:1056F00070BD00232A4619462046FFF732FF0028D6
:10570000F6D0E168491CE16070BD70B50C4605003B
:1057100007D140F2BD22AFF21021AFF2F81002F033
:1057200039FBAC4207D940F2BE22AFF22421AFF2DE
:105730000C2002F02FFB022200212846FFF73CFD3F
:10574000002800D0846370BD2DE9F04798461546C7
:105750008946040007D140F29F32AFF25421AFF2E4
:105760003C2002F017FBB9F1000F09D1206C38B1D1
:105770004FF46872AFF27021AFF2582002F00AFBCA
:10578000B8F1020F0AD1E06B012807D040F2A13234
:10579000AFF28C21AFF2742002F0FCFA01F011FCA0
:1057A0005020EFF3118780F31188BFF34F8FBFF3C1
:1057B0006F8FA06BE16B884207D3B8F1020F04D062
:1057C000002087F31188BDE8F08794F945604246D0
:1057D00049462046FFF714FD701C04D0761C84F85F
:1057E00045600120EDE7A06C012620B1414620462E
:1057F000FFF73CFD06E0606A0028F2D004F12400C7
:1058000000F075FE0028ECD0002DEAD02E60E8E70D
:105810002DE9F0410D46040007D140F23C42AFF2C1
:105820001831AFF2003002F0B5FA206C38B14FF405
:105830008862AFF22C31AFF2143002F0ABFA20687C
:1058400048B9606838B140F24542AFF24431AFF236
:105850002C3002F09FFA01F0B4FB5020EFF31186D8
:1058600080F31188BFF34F8FBFF36F8FA16BE06B95
:1058700088421FD994F94500491CA163411C04D0FA
:10588000401C84F84500012015E0A06C012720B1E0
:1058900000212046FFF7EAFC06E0606A0028F2D00B
:1058A00004F1240000F023FE0028ECD0002DEAD003
:1058B0002F60E8E7002086F31188D5E42DE9F04752
:1058C00090468946040007D14FF4B462AFF2C83164
:1058D000AFF2B03002F05EFAB9F1000F09D1206CDE
:1058E00038B140F2A152AFF2E031AFF2C83002F06D
:1058F00051FA01F066FB5020EFF3118780F3118815
:10590000BFF34F8FBFF36F8FA66BF6B194F944507E
:1059100049462046FFF712FE761EA663681C04D097
:105920006D1C84F84450012010E020690028FAD052
:1059300004F1100000F0DBFD0028F4D0B8F1000FF6
:10594000F1D00121C8F80010EDE7002087F311889D
:1059500039E72DE9F0410E46040007D140F2FC5230
:10596000AFF25C41AFF2444002F014FA4EB9206C41
:1059700048B140F2FD52AFF27041AFF2584002F030
:1059800009FA206C38B940F2FE52AFF28441AFF20E
:105990006C4002F0FFF901F014FB5020EFF3118589
:1059A00080F31188BFF34F8FBFF36F8FA06B30B1BF
:1059B00031462046E768FFF7C1FD0120E76085F327
:1059C000118851E410B5040007D140F22F62AFF204
:1059D000C841AFF2B04002F0DDF901F0B3FAA46BB8
:1059E00001F0CAFA20468DE510B5040007D140F257
:1059F0004162AFF2EC41AFF2D44002F0CBF901F0DA
:105A0000A1FAD4E90E10441A01F0B6FA204679E55D
:105A100010B5040007D140F25162AFF21451AFF259
:105A2000FC4002F0B7F9A06B6CE5584A002102EB8C
:105A3000C1035B68834206D1002042F8310002EBCB
:105A4000C10148607047491C0A29F0D3704710B55E
:105A5000040007D140F25D62AFF25451AFF23C5006
:105A600002F098F92046FFF7E0FF2046BDE810401D
:105A700001F07DB910B5040007D140F29372AFF286
:105A80007851AFF2605002F085F9A06B08B10020A8
:105A900038E5012036E510B5040007D140F2BA72AE
:105AA000AFF29C51AFF2845002F074F9A06BE16B3D
:105AB000884201D1012025E5002023E510B5334BB4
:105AC000002253F832401CB1521C0A2AF9D319E5BE
:105AD00043F8321003EBC201486013E510B500240F
